:100000005BC0000075C0000073C0000071C000003C
:100010006FC000006DC000006BC0000069C0000030
:1000200067C0000065C0000063C0000061C0000040
:100030005FC000005DC000005BC0000059C0000050
:100040007CC00000F3C000009CC0000051C0000054
:100050004FC000004DC000004BC0000049C0000070
:1000600047C0000045C0000043C0000041C0000080
:100070003FC000003DC000003BC0000039C0000090
:1000800037C0000035C0000033C0000031C00000A0
:100090002FC000002DC000002BC0000029C00000B0
:1000A00027C0000025C0000023C000006364696E03
:1000B0006F70737578585B0011241FBECFEFDAE0C4
:1000C000DEBFCDBF13E0A0E0B1E0E2E0F3E102C0AB
:1000D00005900D92A837B107D9F724E0A8E7B3E05F
:1000E00001C01D92AD36B207E1F78FD10C947F09A4
:1000F00087CF80918F038823E1F310928F03809143
:100100007A0390E0089590917C039111FCCF809543
:1001100080937B038AE080937C0380E090E00895E5
:10012000CF93DF9380E090E0E4DFEC0160E070E0EB
:10013000EADFCE01DF91CF9108951F920F920FB6A3
:100140000F9211248F939F93809186009091870046
:100150008D53964F90938B0080938A001092780372
:1001600081E08093790384E086BB4C9903C086E0EC
:1001700080936F009F918F910F900FBE0F901F90F3
:1001800018951F920F920FB60F9211242F933F9341
:100190004F935F936F937F938F939F93AF93BF938F
:1001A000EF93FF93809179038823C9F04C9B07C09C
:1001B0009091790380917803892B809378038091C3
:1001C0007903880F8093790380918A0090918B0046
:1001D0008E57994F90938B0080938A0016C0E091C0
:1001E0007F03F0918003309721F080917803099587
:1001F00007C081E080938F038091780380937A0316
:1002000080E286BB82E280936F00FF91EF91BF9105
:10021000AF919F918F917F916F915F914F913F919E
:100220002F910F900FBE0F901F9018951F920F9255
:100230000FB60F9211248F939F9380918800909115
:1002400089008E57994F9093890080938800809100
:100250007C038823C9F080917C03815080937C03C8
:1002600080917C03893069F080917B0380FD02C01E
:1002700080EC01C080E890917B03969590937B037E
:1002800001C080E8809380009F918F910F900FBEF6
:100290000F901F901895E1E8F3E023E830E03187F4
:1002A000208789E790E09387828783E083831586A0
:1002B0001486E0E9F3E03187208720E930E03387D6
:1002C000228783831586148680918400909185000F
:1002D0000196909389008093880080EC8093800041
:1002E00081E88093810080E286BB82E280936F0088
:1002F00010927C0310928F03259A7894089590931E
:10030000800380937F030895CF93DF9380E090E094
:10031000F0DEEC01ACD1892B21F060E070E08C2F95
:10032000F2DECE01DF91CF910895CF93DF9380E08D
:1003300090E0EADFEC010D9741F460E070E08DE0C1
:10034000E2DE60E070E08AE0DEDECE01DF91CF9198
:1003500008950F931F93CF93DF93EC018C01060F49
:10036000111DC017D10729F080E090E0C2DE89930B
:10037000F8CFDF91CF911F910F9108950F931F93A5
:10038000CF93DF93EC018C01060F111DC017D1072D
:1003900029F080E090E0C4DE8993F8CFDF91CF911F
:1003A0001F910F9108950F931F93CF93DF93EC014B
:1003B0008C01060F111DC017D10729F060E070E015
:1003C0008991A1DEF8CFDF91CF911F910F91089510
:1003D000482F80917D0390917E0367EC70E031D1CE
:1003E0009C01FC01E256FC4F4083809300012F5F8B
:1003F0003F4F30937E0320937D034D3011F04A3000
:1004000019F481E0809366040895CF93DF9300D0C0
:1004100000D000D0CDB7DEB784B7877F84BF0FB6DA
:10042000F894A89580916000886180936000109294
:1004300060000FBE80E880936100109261002BDFA6
:100440002FEF83ED90E3215080409040E1F700C012
:10045000000081E893E090936A048093690490938C
:1004600068048093670404E110E060E070E084E6D3
:100470004ADE01501109C9F760E070E08DE043DE0B
:1004800060E070E08AE03FDE81E091E09F938F932F
:1004900083E091E09F938F9328D161E873E082E23B
:1004A00091E0EBD08BE391E033D16FE182E591E015
:1004B0007ADF84E0D82E8E010F5F1F4FF8012D2DBB
:1004C00011922A95E9F782E791E09F938F930DD1DE
:1004D00063E0C80153DF1F930F9390EAE92E91E088
:1004E000F92EFF92EF9201D1F8011192DA94E9F717
:1004F00085EB91E09F938F93F8D063E0C80129DFEB
:100500001F930F93FF92EF92F0D01E821D8284EE14
:1005100091E09F938F93E9D06E01F5E0CF0ED11C4F
:10052000DF92CF9226E2E22E22E0F22EFF92EF92AD
:1005300030E9A32E33E0B32EBF92AF92C7D08E81A5
:100540008F938D818F9309E212E01F930F93CDD08B
:100550001E821D8281E492E09F938F93C6D0DF922A
:10056000CF92FF92EF9204D10FB6F894DEBF0FBE88
:10057000CDBF8E818F938D818F931F930F93B5D0B5
:10058000B0926A04A0926904B0926804A0926704D1
:100590001E821D8284E892E09F938F93A6D0DF9203
:1005A000CF92FF92EF92E4D08E818F938D818F93C3
:1005B0001F930F939AD08CEC92E0AAD0109266040D
:1005C0001091000188EE91E09ADE0FB6F894DEBF3C
:1005D0000FBECDBF4EE9E42E43E0F42E5AE0C52E07
:1005E00053E0D52E80916604811110C080910001E6
:1005F0001817C1F310910001FF92EF92DF92CF9292
:1006000074D00F900F900F900F90ECCF80E090E09F
:1006100076DE8EE993E09F938F938CE193E09F9336
:100620008F9363D080E593E073D00F900F900F907D
:100630000F9080918F038823E1F380E090E075DED6
:10064000F8CFAA1BBB1B51E107C0AA1FBB1FA617EF
:10065000B70710F0A61BB70B881F991F5A95A9F76B
:1006600080959095BC01CD010895803209F09111DB
:10067000F2C480528F55E0F70895EF92FF920F93E6
:100680001F93CF93DF93DB0113962C9121FF18C0AA
:100690008B017C01D0E0C0E0F70181917F018823CC
:1006A00061F0D8011896ED91FC911997B801099560
:1006B000892B91F3DFEFCFEFEFCF8D2F9C2F02C06F
:1006C0008FEF9FEFCDB7DEB7E6E00AC6A0E0B0E05F
:1006D000EBE6F3E0EDC5AE01475F5F4F6F817885D4
:1006E0008D819E81B7D3E2E0FFC5A0E0B0E0EAE7EC
:1006F000F3E0DEC5AE014B5F5F4FFA01619171918E
:10070000AF018091690490916A0445D0E2E0ECC5A4
:100710000F931F93CF93DF93E0916904F0916A04E4
:10072000238121FF1BC08C01D0E0C0E0F801819142
:100730008F016091690470916A04DB011896ED9154
:10074000FC911997882331F00995892B79F3DFEF14
:10075000CFEFECCF8AE00995892B19F08FEF9FEF4F
:1007600002C08D2F9C2FDF91CF911F910F91089583
:10077000A0E0B0E0EDEBF3E09BC5AE014B5F5F4F57
:10078000FA0161917191AF018091670490916804C1
:1007900061D3E2E0A9C5ABE0B0E0E0EDF3E078C5FD
:1007A0006C017B018A01FC0117821682838181FF23
:1007B000BFC1CE0101963C01F6019381F70193FD83
:1007C000859193FF81917F01882309F4ADC1853222
:1007D00039F493FD859193FF81917F01853221F456
:1007E000B60190E0A2D4E8CF912C212C312CFFE16E
:1007F000F315D8F08B3279F038F4803279F0833207
:10080000A1F4232D20611DC08D3261F0803369F485
:10081000232D216016C0832D8260382EE32DE460E5
:100820003E2E2AC0F32DF8601DC037FC2DC020EDF0
:10083000280F2A3040F08E32B9F436FC75C1232DD2
:100840002064322E19C036FE06C08AE0989E200D24
:100850001124922E11C0EAE02E9E200D1124222E8A
:10086000F32DF0623F2E08C08C3621F4832D806872
:10087000382E02C0883641F4F70193FD859193FF2D
:1008800081917F018111B3CF982F9F7D9554933033
:1008900028F40C5F1F4F9FE399830DC0833631F01E
:1008A000833771F0833509F055C020C0F80180818D
:1008B00089830E5F1F4F88248394912C530112C0AB
:1008C0002801F2E04F0E511CF801A080B18036FEE5
:1008D00003C0692D70E002C06FEF7FEFC501DCD36C
:1008E0004C018201F32DFF773F2E15C0280122E035
:1008F000420E511CF801A080B18036FE03C0692D64
:1009000070E002C06FEF7FEFC501BBD34C01F32D48
:10091000F0683F2E820133FC19C0822D90E08816CA
:100920009906A0F4B60180E290E0FFD32A94F5CFB7
:10093000F50137FC859137FE81915F01B60190E0AA
:10094000F4D321102A9421E0821A91088114910491
:1009500079F7E1C0843611F0893639F5F80137FEB0
:1009600007C060817181828193810C5F1F4F08C035
:1009700060817181072E000C880B990B0E5F1F4F51
:10098000F32DFF763F2E97FF09C0909580957095C7
:1009900061957F4F8F4F9F4FF0683F2E2AE030E0E8
:1009A000A30118D4882E861844C0853731F4232D2E
:1009B0002F7EB22E2AE030E025C0932D997FB92EEC
:1009C0008F36C1F018F4883579F0AEC0803719F051
:1009D000883721F0A9C0E92FE061BE2EB4FE0DC01A
:1009E000FB2DF460BF2E09C034FE0AC0292F2660FB
:1009F000B22E06C028E030E005C020E130E002C0A1
:100A000020E132E0F801B7FE07C060817181828188
:100A100093810C5F1F4F06C06081718180E090E080
:100A20000E5F1F4FA301D6D3882E8618FB2DFF77AC
:100A30003F2E36FE0DC0232D2E7FA22E891458F492
:100A400034FE0BC032FC09C0832D8E7EA82E05C05B
:100A5000B82CA32C03C0B82C01C0B92CA4FE0FC025
:100A6000FE01E80DF11D8081803321F49A2D997EDD
:100A7000A92E09C0A2FE06C0B394B39404C08A2D67
:100A8000867809F0B394A3FC10C0A0FE06C0B2148F
:100A900080F4280C922C9B180DC0B21458F4B601A7
:100AA00080E290E042D3B394F8CFB21418F42B183C
:100AB00002C0982C212CA4FE0FC0B60180E390E068
:100AC00034D3A2FE16C0A1FC03C088E790E002C0A8
:100AD00088E590E0B6010CC08A2D867851F0A1FE21
:100AE00002C08BE201C080E2A7FC8DE2B60190E07B
:100AF0001CD3891430F4B60180E390E016D39A94A5
:100B0000F8CF8A94F301E80DF11D8081B60190E0E1
:100B10000CD38110F6CF222009F44ECEB60180E22C
:100B200090E003D32A94F7CFF6018681978102C023
:100B30008FEF9FEF2B96E2E1C7C320FD09C0FC01B8
:100B400023FD05C022FF02C073836283518340836B
:100B5000089544FD17C046FD17C0AB01BC01DA0182
:100B6000FB01AA0FBB1FEE1FFF1F1094D1F74A0F06
:100B70005B1F6E1F7F1FCB01BA01660F771F881F97
:100B8000991F09C033E001C034E0660F771F881F4A
:100B9000991F3150D1F7620F711D811D911D08956C
:100BA0000F931F93CF93DF938C01C80180D2EC0188
:100BB00097FD06C053D2892BC1F7B801CE01F1D2FF
:100BC000CE01DF91CF911F910F9108958F929F9247
:100BD000AF92BF92EF92FF920F931F93CF93DF9349
:100BE0008C01D62F7A01B22E62D29C0133272B3290
:100BF000310531F02D32310559F48B2D8068B82E36
:100C0000D15011F480E061C0C80151D297FDFACFF4
:100C1000CB2DCD7F2B2D2073F9F48033E9F4AA245A
:100C2000AA94AD0E09F43EC0C80141D297FD3AC066
:100C30009C012F7D33272835310541F4C264D25001
:100C400089F1C80134D297FF07C02CC0B6FE02C09C
:100C5000C26001C0C261DA2D812C912C540120EDBB
:100C6000280F283078F0C4FF03C0B8019AD217C00B
:100C70002A3040F0C6FFF9CF2F7D3FEE320F3630DD
:100C8000A0F727504C2FC501B40163DF4B015C0175
:100C9000C260D15051F0C8010AD297FFE0CFC1FD28
:100CA00004C0B0CF812C912C5401C7FF08C0B09470
:100CB000A09490948094811C911CA11CB11C2C2F99
:100CC000B501A401C70139DF81E0DF91CF911F9108
:100CD0000F91FF90EF90BF90AF909F908F900895ED
:100CE000A0E2B0E0E5E7F6E0D6C25C01962E7A011C
:100CF000F9018E010F5F1F4F680180E2D8011D923C
:100D00008A95E9F7D50113968C9080E090E0612CEC
:100D1000712C30E061E070E083FC259183FE21912D
:100D20008F01522E211103C080E090E090C02E353B
:100D300011F4009751F1432F50E0481759073CF444
:100D40002D3559F12D3219F4772009F103C07720A0
:100D500009F468C0452D469546954695D601A40FE1
:100D6000B11D452D47708B0102C0000F111F4A9520
:100D7000E2F7A8015C91452B4C93651459F0561489
:100D800010F45394E7CF5A94E5CF31E004C07724B0
:100D9000739401C0712C0196BFCF772019F08E811A
:100DA00080628E83311103C08824839417C0F601BA
:100DB0009E012F5D3F4F8081809581932E173F07C5
:100DC000D1F7F2CFE114F10429F0D7018C93F701A8
:100DD00031967F019A94812C9920E9F0C50167D161
:100DE00097FD17C0FC01FF2723E0F595E7952A95AD
:100DF000E1F7EC0DFD1D208130E0AC014770552777
:100E000002C0359527954A95E2F720FDDBCFB50165
:100E1000C8D1811089CFE114F10411F0D7011C92DF
:100E2000C80115C0422F469546954695D601A40F98
:100E3000B11D422F47708B0102C0000F111F4A9550
:100E4000E2F7A8015C91452B4C93622EA4CFA096AB
:100E5000EFE03DC2A0E0B0E0EFE2F7E01CC26C01C1
:100E6000EB015A01FC0117821682512CF601E38036
:100E7000FE01E3FC8591E3FE8191182FEF018823A9
:100E800009F4E0C090E0EAD0892B19F0C60188DEB1
:100E9000EDCF153241F4FE01E3FC1591E3FE119113
:100EA000EF01153271F4C60102D197FDC9C0412F7F
:100EB00050E09C01332724173507C1F2B60171D1E8
:100EC000C1C01A3239F4E3FC1591E3FE1191EF0130
:100ED00001E001C000E0F12C20ED210F2A3078F470
:100EE00002606F2D70E080E090E040E232DEF62E8E
:100EF000FE01E3FC1591E3FE1191EF01EDCF01FF3F
:100F000003C0F11003C09EC0FF24FA94183619F0F4
:100F10001C3651F010C0FE01E3FC1591E3FE119167
:100F2000EF01183641F408600460FE01E3FC1591FE
:100F3000E3FE1191EF01112309F484C0612F70E0E9
:100F40008CEA90E093D0892B09F47CC000FD07C0A7
:100F5000F50180809180C50102965C0102C0812C60
:100F6000912C1E3649F4F6014681578160E070E00D
:100F7000202FC401E2DD7ACF1336A1F401FD02C0B7
:100F8000FF24F394C60193D097FD5AC081149104B5
:100F900029F0F4018083C40101964C01FA94F11008
:100FA000F1CF4AC01B3551F49E01A4016F2DC6013B
:100FB00097DEEC01892B09F03FC039C0C601F0DD96
:100FC00097FD3EC01F3649F128F4143621F1193639
:100FD00039F125C0133771F01537E9F020C08114BD
:100FE000910429F0F4016082C40101964C01FA9445
:100FF000FF2059F0C6015BD03C0197FD06C02ED002
:10100000892B69F3B601C301CCD081149104A1F0FE
:10101000F401108211C0006203C0006101C00064CD
:10102000202FA4016F2DC601D1DD811105C0F6016D
:101030008381807329F406C000FD18CF539416CF26
:10104000552019F0852D90E002C08FEF9FEFCDB7AE
:10105000DEB7EFE03CC19927882708959111FBCFB7
:10106000803219F089508550D0F70895FC01059021
:10107000061621F00020D9F7C00108953197CF015D
:101080000895FC010590615070400110D8F78095DB
:1010900090958E0F9F1F0895FC0161507040019044
:1010A0000110D8F7809590958E0F9F1F0895CF93CC
:1010B000DF93EC012B8120FF33C026FF0AC02F7B7A
:1010C0002B838E819F8101969F838E838A8190E0FE
:1010D00029C022FF0FC0E881F9818081082E000C11
:1010E000990B009719F420622B831AC03196F9836B
:1010F000E8830EC0EA85FB85099597FF09C02B811F
:10110000019611F080E201C080E1822B8B8308C040
:101110002E813F812F5F3F4F3F832E83992702C04F
:101120008FEF9FEFDF91CF9108950F931F93CF9390
:10113000DF93FB01238121FD03C08FEF9FEF2CC0C4
:1011400022FF16C0468157812481358142175307FB
:1011500044F4A081B1819D012F5F3F4F31832083F3
:101160008C93268137812F5F3F4F3783268314C0AE
:101170008B01EC01FB010084F185E02D0995892BA1
:10118000E1F6D80116968D919C91179701961796C6
:101190009C938E931697CE01DF91CF911F910F9163
:1011A0000895FB01238120FF12C026FD10C08F3F50
:1011B0003FEF930761F082832F7D20642383268194
:1011C00037812150310937832683992708958FEF7E
:1011D0009FEF0895FA01AA27283051F1203181F1BB
:1011E000E8946F936E7F6E5F7F4F8F4F9F4FAF4F2F
:1011F000B1E03ED0B4E03CD0670F781F891F9A1F42
:10120000A11D680F791F8A1F911DA11D6A0F711DF5
:10121000811D911DA11D20D009F468943F912AE001
:10122000269F11243019305D3193DEF6CF010895E9
:10123000462F4770405D4193B3E00FD0C9F7F6CF1A
:10124000462F4F70405D4A3318F0495D31FD4052E2
:10125000419302D0A9F7EACFB4E0A6959795879578
:1012600077956795BA95C9F7009761057105089557
:101270009B01AC010A2E0694579547953795279503
:10128000BA95C9F7620F731F841F951FA01D08959B
:101290002F923F924F925F926F927F928F929F9286
:1012A000AF92BF92CF92DF92EF92FF920F931F9374
:1012B000CF93DF93CDB7DEB7CA1BDB0B0FB6F89425
:1012C000DEBF0FBECDBF09942A88398848885F8465
:1012D0006E847D848C849B84AA84B984C884DF80D6
:1012E000EE80FD800C811B81AA81B981CE0FD11DBA
:1012F0000FB6F894DEBF0FBECDBFED010895F89490
:02130000FFCF1D
:10130200FF32000D0A0D0A415439305357554152EC
:10131200542076657273696F6E3A2025730D0A0D3B
:101322000A000D0A686920647265672066726F6D33
:1013320020667072696E74660D0A000D0A68692073
:10134200647265672066726F6D207072696E746672
:101352000D000D0A686920647265672066726F6D00
:10136200205357555F54784275666665720D0A0DB3
:101372000A00706C656173652C2074797065203386
:1013820020636861726163746572732028656368A3
:101392006F20697320454E41424C4544293A200052
:1013A2000D0A6279746573207265616465643A201E
:1013B20025730D0A00706C656173652C2074797059
:1013C20065203320636861726163746572732028DB
:1013D2006563686F2069732064697361626C656418
:1013E200293A2000706C656173652C2074797065F0
:1013F200206120646563696D616C206E756D626544
:101402007220616E6420707265737320454E54457C
:101412005220286563686F20697320454E41424C13
:101422004544293A20002564000D0A6E756D6265F7
:101432007220696E206865783A20307825580D0A46
:1014420000706C656173652C207479706520612071
:10145200646563696D616C206E756D626572206191
:101462006E6420707265737320454E544552202875
:101472006563686F2069732064697361626C656477
:10148200293A2000706C656173652C20747970654F
:10149200206120646563696D616C206E756D6265A3
:1014A2007220616E6420707265737320454E5445DC
:1014B2005220286563686F20697320464F52434566
:1014C2004420454E41424C45293A20000D0A747988
:1014D200706520736F6D6520636861726163746506
:1014E200727320616E6420707265737320454E546E
:1014F200455220746F2074657374206D795F727821
:101502005F68616E646C65720D000D0A63757272BC
:1015120020627566663A2025730D0A000D0A0D0ACF
:101522006D795F72785F68616E646C657220657850
:10153200656375746564212C206C61737420636823
:101542006172732074797065643A2025730D0A0004
:101552000D0A0D0A5459504520414E442045434836
:101562004F20286F6E6C792076616C696420636805
:08157200617273293A0D0000BB
:00000001FF
