S0120000617439307377756172742E737265632E
S113000051C000006DC000006BC0000069C000005A
S113001067C0000065C0000063C0000061C000004C
S11300205FC000005DC000005BC0000059C000005C
S113003057C0000055C0000053C0000051C000006C
S113004076C00000EFC0000096C0000049C0000068
S113005047C0000045C0000043C0000041C000008C
S11300603FC000003DC000003BC0000039C000009C
S113007037C0000035C0000033C0000031C00000AC
S11300802FC000002DC000002BC0000029C00000BC
S113009027C0000025C000006364696E6F7073752B
S11300A078585B0011241FBECFEFD0E2DEBFCDBF76
S11300B013E0A0E0B1E0E8ECF3E100E00BBF02C024
S11300C007900D92A837B107D9F724E0A8E7B3E069
S11300D001C01D92AD36B207E1F7B1D10C94E2092B
S11300E08FCF80918F038823E1F310928F03809147
S11300F07A0390E0089590917C039111FCCF809550
S113010080937B038AE080937C0380E090E00895F1
S1130110CF93DF9380E090E0E4DFC82FD92F60E035
S113012070E0E9DF8C2F9D2FDF91CF9108951F920E
S11301300F920FB60F9211248F939F938091860094
S1130140909187008D53964F90938B0080938A00F3
S11301501092780381E08093790384E086BB4C9904
S113016003C086E080936F009F918F910F900FBE24
S11301700F901F9018951F920F920FB60F92112493
S11301800BB60F922F933F934F935F936F937F938D
S11301908F939F93AF93BF93EF93FF9380917903D2
S11301A08823B9F04C9B07C0909179038091780320
S11301B0892B8093780380917903880F8093790346
S11301C0EAE8F0E0808191818E57994F9183808392
S11301D016C0E0917F03F0918003309721F0809165
S11301E07803099507C081E080938F038091780399
S11301F080937A0380E286BB82E280936F00FF9152
S1130200EF91BF91AF919F918F917F916F915F918A
S11302104F913F912F910F900BBE0F900FBE0F90F7
S11302201F9018951F920F920FB60F9211240BB6C0
S11302300F928F939F93EF93FF93E8E8F0E0808110
S113024091818E57994F9183808380917C03882379
S1130250C9F080917C03815080937C0380917C035E
S1130260893069F080917B0380FF02C090E801C06F
S113027090EC80917B03869580937B0301C090E88A
S113028090938000FF91EF919F918F910F900BBEFF
S11302900F900FBE0F901F901895E1E8F3E02BE745
S11302A030E03187208781E790E09387828783E07D
S11302B0838315861486E0E9F3E03187208728E8F4
S11302C030E03387228783831586148680918400E7
S11302D0909185000196909389008093880080EC2A
S11302E08093800081E88093810080E286BB82E273
S11302F080936F0010927C0310928F0384B180620C
S113030084B9789408959093800380937F0308952B
S1130310CF93DF9380E090E0E4DEC82FD92FC2D1E1
S1130320892B21F060E070E08C2FE5DE8C2F9D2F6F
S1130330DF91CF910895CF93DF9380E090E0E8DFE1
S1130340EC010D9741F460E070E08DE0D4DE60E0F4
S113035070E08AE0D0DECE01DF91CF9108950F9353
S11303601F93CF93DF938C01D62FC0E007C080E0AA
S113037090E0B7DEF80181938F01CF5FCD17B8F31A
S1130380DF91CF911F910F9108950F931F93CF93F6
S1130390DF938C01D62FC0E007C080E090E0B8DE88
S11303A0F80181938F01CF5FCD17B8F3DF91CF911F
S11303B01F910F9108950F931F93CF93DF938C0197
S11303C0D62FC0E007C060E070E0F80181918F0192
S11303D092DECF5FCD17B8F3DF91CF911F910F91CC
S11303E00895482FE0917D03F0917E039F01A5E5D8
S11303F0B2E547D10024880F991F001C880F991F6C
S1130400001C892F902D57EC589F9001599F300D57
S11304101124CF01821B930BFC01E256FC4F408355
S113042080930001019690937E0380937D034D3069
S113043011F04A3019F481E0809366040895CF9353
S1130440DF9300D000D000D0CDB7DEB784B7877F6C
S113045084BF0FB6F894A89580916000886180935A
S11304606000109260000FBEE1E6F0E080E8808357
S1130470108213DF2FEF83ED90E3215080409040F2
S1130480E1F700C00000E7E6F4E081E893E093833D
S113049082839183808300E010E006C060E070E016
S11304A084E629DE0F5F1F4F04311105BCF360E0C1
S11304B070E08DE020DE60E070E08AE01CDE81E028
S11304C091E09F938F9383E091E09F938F9341D129
S11304D021E833E048E150E061E070E082E291E03D
S11304E0F6D08BE391E048D16FE182E591E063DFE0
S11304F06894DD24D2F88E010F5F1F4FF8012D2D73
S113050011922A95E9F782E791E09F938F9321D185
S113051063E0C8013ADF1F930F930F2EF0EAEF2E2A
S1130520F1E0FF2EF02DFF92EF9213D1F80111921A
S1130530DA94E9F785EB91E09F938F930AD163E016
S1130540C8010DDF1F930F93FF92EF9202D11E8219
S11305501D8284EE91E09F938F93FBD06E01F5E0B2
S1130560CF0ED11CDF92CF920F2EF6E2EF2EF2E0E7
S1130570FF2EF02DFF92EF920F2EF0E9AF2EF3E055
S1130580BF2EF02DBF92AF9293D08E818F938D8129
S11305908F9309E212E01F930F93DBD01E821D821A
S11305A081E492E09F938F93D4D0DF92CF92FF9215
S11305B0EF9212D10FB6F894DEBF0FBECDBF8E817D
S11305C08F938D818F931F930F93C3D0E7E6F4E04D
S11305D0B382A282B182A0821E821D8284E892E04C
S11305E09F938F93B6D0DF92CF92FF92EF92F4D085
S11305F08E818F938D818F931F930F93AAD08CEC50
S113060092E0BAD0109266041091000181EF91E05B
S11306107ADE0FB6F894DEBF0FBECDBF13C0809153
S11306200001181779F0109100018EE993E09F936F
S11306308F938AE093E09F938F938BD00F900F90CA
S11306400F900F9080916604882349F380E090E036
S11306505ADE8EE993E09F938F938CE193E09F930E
S11306608F9377D080E593E087D00F900F900F9011
S11306700F9080918F038823E1F380E090E05BDEAC
S1130680F8CFA29FB001B39FC001A39F700D811D3D
S11306901124911DB29F700D811D1124911D089587
S11306A0803209F0911171C580528F55E0F7089599
S11306B0CF93DF93CDB7DEB7AE01475F5F4F6F8156
S11306C078858D819E814AD4DF91CF9108958F9250
S11306D09F92AF92BF92CF92DF92EF92FF920F93CD
S11306E01F93CF93DF935B014A017901D9011396DC
S11306F02C9121FF1DC0C0E0D0E0C815D905D9F068
S11307008C016C01CA0CDB1CC8010C151D0571F0B1
S11307100F5F1F4FD7011896ED91FC911997B70100
S1130720DC018C910995892B79F305C02196E5CFDD
S113073080E090E001C0CE01DF91CF911F910F9135
S1130740FF90EF90DF90CF90BF90AF909F908F90ED
S11307500895CF93DF93CDB7DEB7AE014B5F5F4F04
S1130760FA0161917191AF018091690490916A04D9
S113077046D0DF91CF9108950F931F93CF93DF93CA
S1130780E0916904F0916A04238121FF1BC08C016C
S1130790D0E0C0E0F80181918F016091690470910B
S11307A06A04DB011896ED91FC911997882331F0C6
S11307B00995892B79F3DFEFCFEFECCF8AE0099528
S11307C0892B19F08FEF9FEF02C08D2F9C2FDF91A3
S11307D0CF911F910F910895CF93DF93CDB7DEB7DB
S11307E0AE014B5F5F4FFA0161917191AF0180914E
S11307F0670490916804B2D3DF91CF9108952F924A
S11308003F924F925F926F927F928F929F92AF929C
S1130810BF92CF92DF92EF92FF920F931F93CF93E9
S1130820DF93CDB7DEB72B970FB6F894DEBF0FBEBC
S1130830CDBF6C017B018A01FC0117821682838182
S113084081FFBFC1CE0101963C01F6019381F701FE
S113085093FD859193FF81917F01882309F4ADC1B4
S1130860853239F493FD859193FF81917F0185321F
S113087021F4B60190E0F3D4E8CF912C212C312C53
S1130880FFE1F315D8F08B3279F038F4803279F047
S11308908332A1F4232D20611DC08D3261F0803399
S11308A069F4232D216016C0832D8260382EE32D38
S11308B0E4603E2E2AC0F32DF8601DC037FC2DC025
S11308C020ED280F2A3040F08E32B9F436FC75C181
S11308D0232D2064322E19C036FE06C08AE0989E6D
S11308E0200D1124922E11C0EAE02E9E200D112419
S11308F0222EF32DF0623F2E08C08C3621F4832D76
S11309008068382E02C0883641F4F70193FD859142
S113091093FF81917F018111B3CF982F9F7D9554CF
S1130920933028F40C5F1F4F9FE399830DC08336E7
S113093031F0833771F0833509F055C020C0F801D8
S1130940808189830E5F1F4F88248394912C5301E7
S113095012C02801F2E04F0E511CF801A080B180B2
S113096036FE03C0692D70E002C06FEF7FEFC50152
S11309702DD44C018201F32DFF773F2E15C02801A1
S113098022E0420E511CF801A080B18036FE03C063
S1130990692D70E002C06FEF7FEFC5010CD44C01EC
S11309A0F32DF0683F2E820133FC19C0822D90E0B4
S11309B088169906A0F4B60180E290E050D42A94F7
S11309C0F5CFF50137FC859137FE81915F01B601C2
S11309D090E045D421102A9421E0821A91088114D0
S11309E0910479F7E1C0843611F0893639F5F801BC
S11309F037FE07C060817181828193810C5F1F4F34
S1130A0008C060817181072E000C880B990B0E5F62
S1130A101F4FF32DFF763F2E97FF09C090958095C9
S1130A20709561957F4F8F4F9F4FF0683F2E2AE05E
S1130A3030E0A30169D4882E861844C0853731F488
S1130A40232D2F7EB22E2AE030E025C0932D997FEE
S1130A50B92E8F36C1F018F4883579F0AEC08037DE
S1130A6019F0883721F0A9C0E92FE061BE2EB4FE49
S1130A700DC0FB2DF460BF2E09C034FE0AC0292F1F
S1130A802660B22E06C028E030E005C020E130E048
S1130A9002C020E132E0F801B7FE07C06081718135
S1130AA0828193810C5F1F4F06C06081718180E059
S1130AB090E00E5F1F4FA30127D4882E8618FB2DCC
S1130AC0FF773F2E36FE0DC0232D2E7FA22E8914D4
S1130AD058F434FE0BC032FC09C0832D8E7EA82E40
S1130AE005C0B82CA32C03C0B82C01C0B92CA4FE9B
S1130AF00FC0FE01E80DF11D8081803321F49A2D91
S1130B00997EA92E09C0A2FE06C0B394B39404C072
S1130B108A2D867809F0B394A3FC10C0A0FE06C009
S1130B20B21480F4280C922C9B180DC0B21458F403
S1130B30B60180E290E093D3B394F8CFB21418F4E2
S1130B402B1802C0982C212CA4FE0FC0B60180E300
S1130B5090E085D3A2FE16C0A1FC03C088E790E014
S1130B6002C088E590E0B6010CC08A2D867851F069
S1130B70A1FE02C08BE201C080E2A7FC8DE2B601B7
S1130B8090E06DD3891430F4B60180E390E067D32C
S1130B909A94F8CF8A94F301E80DF11D8081B6018F
S1130BA090E05DD38110F6CF222009F44ECEB60139
S1130BB080E290E054D32A94F7CFF601868197819E
S1130BC002C08FEF9FEF2B960FB6F894DEBF0FBED7
S1130BD0CDBFDF91CF911F910F91FF90EF90DF90E8
S1130BE0CF90BF90AF909F908F907F906F905F90C9
S1130BF04F903F902F90089520FD09C0FC0123FDE4
S1130C0005C022FF02C07383628351834083089529
S1130C1044FD17C046FD17C0AB01BC01DA01FB015E
S1130C20AA0FBB1FEE1FFF1F1094D1F74A0F5B1FC3
S1130C306E1F7F1FCB01BA01660F771F881F991F94
S1130C4009C033E001C034E0660F771F881F991F85
S1130C503150D1F7620F711D811D911D08950F93BD
S1130C601F93CF93DF938C01C801BBD2EC0197FD96
S1130C7006C08ED2892BC1F7B801CE012CD3CE0188
S1130C80DF91CF911F910F9108958F929F92AF9210
S1130C90BF92EF92FF920F931F93CF93DF938C0138
S1130CA0D62F7A01B22E9DD29C0133272B323105E7
S1130CB031F02D32310559F48B2D8068B82ED15086
S1130CC011F480E061C0C8018CD297FDFACFCB2D1E
S1130CD0CD7F2B2D2073F9F48033E9F4AA24AA9450
S1130CE0AD0E09F43EC0C8017CD297FD3AC09C0108
S1130CF02F7D33272835310541F4C264D25089F160
S1130D00C8016FD297FF07C02CC0B6FE02C0C260F4
S1130D1001C0C261DA2D812C912C540120ED280FE1
S1130D20283078F0C4FF03C0B801D5D217C02A30E8
S1130D3040F0C6FFF9CF2F7D3FEE320F3630A0F7DB
S1130D4027504C2FC501B40163DF4B015C01C26025
S1130D50D15051F0C80145D297FFE0CFC1FD04C086
S1130D60B0CF812C912C5401C7FF08C0B094A0943B
S1130D7090948094811C911CA11CB11C2C2FB50152
S1130D80A401C70139DF81E0DF91CF911F910F9159
S1130D90FF90EF90BF90AF909F908F9008955F92D7
S1130DA06F927F928F929F92AF92BF92CF92DF9277
S1130DB0EF92FF920F931F93CF93DF93CDB7DEB7DC
S1130DC0A0970FB6F894DEBF0FBECDBF5C01962E80
S1130DD07A01F9018E010F5F1F4F680180E2D8018B
S1130DE01D928A95E9F7D50113968C9080E090E0E6
S1130DF0612C712C30E061E070E083FC259183FE6E
S1130E0021918F01522E211103C080E090E090C007
S1130E102E3511F4009751F1432F50E0481759072C
S1130E203CF42D3559F12D3219F4772009F103C022
S1130E30772009F468C0452D469546954695D60118
S1130E40A40FB11D452D47708B0102C0000F111F67
S1130E504A95E2F7A8015C91452B4C93651459F02F
S1130E60561410F45394E7CF5A94E5CF31E004C0FC
S1130E707724739401C0712C0196BFCF772019F0A9
S1130E808E8180628E83311103C08824839417C0BD
S1130E90F6019E012F5D3F4F8081809581932E172F
S1130EA03F07D1F7F2CFE114F10429F0D7018C9375
S1130EB0F70131967F019A94812C9920E9F0C501BC
S1130EC090D197FD17C0FC01FF2723E0F595E79526
S1130ED02A95E1F7EC0DFD1D208130E0AC0147704F
S1130EE0552702C0359527954A95E2F720FDDBCFBB
S1130EF0B501F1D1811089CFE114F10411F0D701CA
S1130F001C92C80115C0422F469546954695D601B8
S1130F10A40FB11D422F47708B0102C0000F111F97
S1130F204A95E2F7A8015C91452B4C93622EA4CF1D
S1130F30A0960FB6F894DEBF0FBECDBFDF91CF9160
S1130F401F910F91FF90EF90DF90CF90BF90AF90E3
S1130F509F908F907F906F905F9008955F926F92B3
S1130F607F928F929F92AF92BF92CF92DF92EF9235
S1130F70FF920F931F93CF93DF936C01EB015A0100
S1130F80FC0117821682512CF601E380FE01E3FC7A
S1130F908591E3FE8191182FEF01882309F4E0C0C5
S1130FA090E0F6D0892B19F0C60159DEEDCF153249
S1130FB041F4FE01E3FC1591E3FE1191EF011532BA
S1130FC071F4C6010ED197FDC9C0412F50E09C01B8
S1130FD0332724173507C1F2B6017DD1C1C01A32B7
S1130FE039F4E3FC1591E3FE1191EF0101E001C036
S1130FF000E0F12C20ED210F2A3078F402606F2DEF
S113100070E080E090E040E203DEF62EFE01E3FCB7
S11310101591E3FE1191EF01EDCF01FF03C0F11033
S113102003C09EC0FF24FA94183619F01C3651F000
S113103010C0FE01E3FC1591E3FE1191EF01183697
S113104041F408600460FE01E3FC1591E3FE119194
S1131050EF01112309F484C0612F70E088E990E066
S11310609FD0892B09F47CC000FD07C0F501808066
S11310709180C50102965C0102C0812C912C1E3620
S113108049F4F6014681578160E070E0202FC401E5
S1131090B3DD7ACF1336A1F401FD02C0FF24F3942B
S11310A0C6019FD097FD5AC08114910429F0F40120
S11310B08083C40101964C01FA94F110F1CF4AC027
S11310C01B3551F49E01A4016F2DC60168DEEC01AD
S11310D0892B09F03FC039C0C601C1DD97FD3EC070
S11310E01F3649F128F4143621F1193639F125C097
S11310F0133771F01537E9F020C08114910429F0F9
S1131100F4016082C40101964C01FA94FF2059F065
S1131110C60167D03C0197FD06C03AD0892B69F31C
S1131120B601C301D8D081149104A1F0F401108256
S113113011C0006203C0006101C00064202FA4013B
S11311406F2DC601A2DD811105C0F6018381807374
S113115029F406C000FD18CF539416CF552019F07A
S1131160852D90E002C08FEF9FEFDF91CF911F910B
S11311700F91FF90EF90DF90CF90BF90AF909F9032
S11311808F907F906F905F90089599278827089596
S11311909111FBCF803219F089508550D0F7089512
S11311A0FC010590061621F00020D9F7C00108952E
S11311B03197CF010895FC010590615070400110F2
S11311C0D8F7809590958E0F9F1F0895FC0161506C
S11311D0704001900110D8F7809590958E0F9F1F55
S11311E00895CF93DF93EC012B8120FF33C026FFBA
S11311F00AC02F7B2B838E819F8101969F838E83D0
S11312008A8190E029C022FF0FC0E881F9818081A2
S1131210082E000C990B009719F420622B831AC036
S11312203196F983E8830EC0EA85FB85099597FF1B
S113123009C02B81019611F080E201C080E1822B6C
S11312408B8308C02E813F812F5F3F4F3F832E83C6
S1131250992702C08FEF9FEFDF91CF9108950F93ED
S11312601F93CF93DF93FB01238121FD03C08FEFF5
S11312709FEF2CC022FF16C04681578124813581FF
S11312804217530744F4A081B1819D012F5F3F4F62
S1131290318320838C93268137812F5F3F4F37839F
S11312A0268314C08B01EC01FB010084F185E02D41
S11312B00995892BE1F6D80116968D919C91179783
S11312C0019617969C938E931697CE01DF91CF913A
S11312D01F910F910895FB01238120FF12C026FD69
S11312E010C08F3F3FEF930761F082832F7D20640E
S11312F02383268137812150310937832683992717
S113130008958FEF9FEF0895FA01AA27283051F12D
S1131310203181F1E8946F936E7F6E5F7F4F8F4F22
S11313209F4FAF4FB1E03ED0B4E03CD0670F781F81
S1131330891F9A1FA11D680F791F8A1F911DA11D66
S11313406A0F711D811D911DA11D20D009F468949F
S11313503F912AE0269F11243019305D3193DEF647
S1131360CF010895462F4770405D4193B3E00FD0FD
S1131370C9F7F6CF462F4F70405D4A3318F0495DE8
S113138031FD4052419302D0A9F7EACFB4E0A695CB
S11313909795879577956795BA95C9F700976105ED
S11313A0710508959B01AC010A2E06945795479543
S11313B037952795BA95C9F7620F731F841F951F38
S10B13C0A01D0895F894FFCF6D
S11313C8FF32000D0A0D0A41543930535755415222
S11313D8542076657273696F6E3A2025730D0A0D71
S11313E80A000D0A686920647265672066726F6D69
S11313F820667072696E74660D0A000D0A686920A9
S1131408647265672066726F6D207072696E7466A7
S11314180D000D0A686920647265672066726F6D35
S1131428205357555F54784275666665720D0A0DE8
S11314380A00706C656173652C20747970652033BB
S113144820636861726163746572732028656368D8
S11314586F20697320454E41424C4544293A200087
S11314680D0A6279746573207265616465643A2053
S113147825730D0A00706C656173652C207479708E
S11314886520332063686172616374657273202810
S11314986563686F2069732064697361626C65644D
S11314A8293A2000706C656173652C207479706525
S11314B8206120646563696D616C206E756D626579
S11314C87220616E6420707265737320454E5445B2
S11314D85220286563686F20697320454E41424C49
S11314E84544293A20002564000D0A6E756D62652D
S11314F87220696E206865783A20307825580D0A7C
S113150800706C656173652C2074797065206120A6
S1131518646563696D616C206E756D6265722061C6
S11315286E6420707265737320454E5445522028AA
S11315386563686F2069732064697361626C6564AC
S1131548293A2000706C656173652C207479706584
S1131558206120646563696D616C206E756D6265D8
S11315687220616E6420707265737320454E544511
S11315785220286563686F20697320464F5243459B
S11315884420454E41424C45293A20000D0A7479BD
S1131598706520736F6D652063686172616374653B
S11315A8727320616E6420707265737320454E54A3
S11315B8455220746F2074657374206D795F727856
S11315C85F68616E646C65720D000D0A63757272F2
S11315D820627566663A2025730D0A000D0A0D0A05
S11315E86D795F72785F68616E646C657220657886
S11315F8656375746564212C206C61737420636859
S11316086172732074797065643A2025730D0A0039
S11316180D0A0D0A5459504520414E44204543486B
S11316284F20286F6E6C792076616C69642063683A
S10B1638617273293A0D0000F0
S9030000FC
